:020000040800F2
:1000000048B8002091040008DDAD00084D840008C8
:10001000D9AD0008A716000829C900080000000093
:10002000000000000000000000000000D1030008F4
:1000300081270008000000002D040008BDB800085A
:10004000AF040008AF040008AF040008AF040008C4
:10005000AF040008AF040008AF040008AF040008B4
:10006000AF040008AF040008AF040008AF040008A4
:10007000FD1B0008AF040008AF040008AF0400082F
:10008000AF040008AF040008AF0400080929000805
:1000900019290008AF040008AF040008AF040008E5
:1000A000AF0400089DBA0008AF040008AF040008C0
:1000B000AF040008AF040008AF040008AF04000854
:1000C000AF040008AF040008AF040008AF04000844
:1000D000AF040008AF040008AF040008AF04000834
:1000E000AF040008AF04000800000000AF040008DF
:1000F000AF040008AF040008AF040008AF04000814
:10010000AF040008AF040008AF040008AF04000803
:10011000AF040008AF040008AF040008AF040008F3
:10012000AF040008AF040008AF040008AF040008E3
:10013000AF040008AF040008AF040008AF040008D3
:1001400000000000000000000000000000000000AF
:10015000AF040008AF040008AF040008AF040008B3
:10016000AF040008AF040008AF040008AF040008A3
:10017000AF040008AF040008AF040008000000004E
:10018000AF040008AF040008AF040008AF04000883
:10019000AF040008AF040008AF040008AF04000873
:1001A000AF040008AF040008AF040008000000001E
:1001B000AF040008AF040008AF040008AF04000853
:1001C000AF040008AF0400080000000000000000B9
:1001D0000000000000000000AF0400080000000064
:1001E000000000000000000000000000000000000F
:1001F0000000000000000000AF040008AF04000889
:10020000AF040008AF04000800000000AF040008BD
:10021000AF040008AF040008AF040008AF040008F2
:10022000AF04000800000000AF0400080000000058
:10023000AF040008AF04000800000000AF0400088D
:10024000AF040008AF040008AF040008AF040008C2
:10025000AF040008AF040008AF040008AF040008B2
:10026000AF040008AF040008AF040008AF040008A2
:10027000AF040008AF040008AF040008000000004D
:10028000AF040008AF040008AF040008AF04000882
:1002900000000000AF040008AF04000800000000E8
:1002A00000000000AF040008AF040008AF0400081D
:1002B000AF040008AF040008AF04000829290008B3
:1002C000AF040008AF040008AF04000800F002F813
:1002D00000F06EF80AA090E8000C82448344AAF172
:1002E0000107DA4501D100F063F8AFF2090EBAE870
:1002F0000F0013F0010F18BFFB1A43F0010318475A
:10030000A80D0100D80D01000A444FF0000C10F8B0
:10031000013B13F0070408BF10F8014B1D1108BF83
:1003200010F8015B641E05D010F8016B641E01F823
:10033000016BF9D113F0080F1EBF10F8014BAD1C73
:100340000C1B09D16D1E58BF01F801CBFAD505E091
:1003500014F8016B01F8016B6D1EF9D59142D6D3EB
:1003600070470000103A24BF78C878C1FAD8520705
:1003700024BF30C830C144BF04680C60704700001F
:100380000023002400250026103A28BF78C1FBD89E
:10039000520728BF30C148BF0B6070471FB510F02F
:1003A000E9F89DE8030000F025FA1FBD10B510BD67
:1003B00000F0B2FA1146FFF7F1FF0DF07DFF00F0FB
:1003C000D0FA03B4FFF7F2FF03BC00F001FB00001A
:1003D0002C4B19680868B0E8F04F80F30988BFF328
:1003E0006F8F4FF0000080F311887047000000000D
:1003F00008480068006880F308884FF0000080F328
:10040000148862B661B6BFF34F8FBFF36F8F00DF02
:1004100000BF00BF08ED00E0DFF80C00016841F408
:1004200070010160704700BF88ED00E0EFF30980C4
:10043000BFF36F8F134B1A681EF0100F08BF20ED2B
:10044000108A20E9F04F106009B44FF0500080F39B
:100450001188BFF34F8FBFF36F8F0FF015F94FF077
:10046000000080F3118809BC19680868B0E8F04FF3
:100470001EF0100F08BFB0EC108A80F30988BFF39C
:100480006F8F704730040020EFF305807047000045
:100490000A4880470A4880470A480047FEE7FEE7C7
:1004A000FEE7FEE7FEE7FEE7FEE7FEE7FEE7FEE724
:1004B00005480649064A074B70470000E528000832
:1004C00091B90008CD0200084858002048B8002023
:1004D000487800204878002070B5064600F06EF994
:1004E000056806F10B0020F00704B4429CBF002011
:1004F00070BD2B466A68BAB11068A04210D304F1EF
:10050000080188423CBF5068586007D351681019F1
:1005100041601168091B016058601460101D70BDB6
:1005200013465268002AE7D12146284600F04EF9CA
:100530000028DED170BD53EA020C00F069802DE97D
:10054000F04B4FF00006002B1FBFB3FA83F503FA00
:1005500005F424FA05F65E4012BF1643B2FA82F59E
:1005600002FA05F4C5F120051EBF22FA05FC44EA93
:100570000C04203556EA044C4FEA144418BF641C9E
:100580004FF000084FF00009904271EB030C39D393
:10059000002919BFB1FA81F701FA07F6B0FA80F71E
:1005A00000FA07F6C7F120071EBF20FA07FC46EA4B
:1005B0000C062037B6FBF4FCA7EB0507103F07F04D
:1005C0001F0BCBF120060CFA0BFB2CFA06F644BFEE
:1005D000B3460026202FA4BF5E464FF0000B5BEA17
:1005E000060C08BF4FF0010B19EB0B09ABFB027CAB
:1005F00048EB0608C01B06FB02CC0BFB03CC71EBDF
:100600000C01C1E70B46024641464846BDE8F08B67
:1006100013B54FF000004FF00001AFF30080BDE8CC
:100620001C407047032A40F2308010F0030C00F0A9
:10063000158011F8013BBCF1020F624498BF11F81C
:1006400001CB00F8013B38BF11F8013BA2F10402D5
:1006500098BF00F801CB38BF00F8013B11F003034D
:1006600000F02580083AC0F0088051F8043B083AB1
:1006700051F804CBA0E80810F5E7121D5CBF51F853
:10068000043B40F8043BAFF30080D20724BF11F8CD
:10069000013B11F801CB48BF11F8012B24BF00F832
:1006A000013B00F801CB48BF00F8012B704710B5A3
:1006B000203AC0F00B80B1E81850203AA0E818505A
:1006C000B1E81850A0E81850BFF4F5AF5FEA027C1B
:1006D00024BFB1E81850A0E8185044BF18C918C08A
:1006E000BDE810405FEA827C24BF51F8043B40F82B
:1006F000043B08BF7047D20728BF31F8023B48BF10
:1007000011F8012B28BF20F8023B48BF00F8012B4D
:10071000704702F0FF0343EA032242EA024200F07C
:1007200002B84FF000020429C0F0128010F0030C50
:1007300000F01B80CCF1040CBCF1020F18BF00F8D4
:10074000012BA8BF20F8022BA1EB0C0100F00DB883
:100750005FEAC17C24BF00F8012B00F8012B48BFE1
:1007600000F8012B70474FF0000200B51346944685
:100770009646203922BFA0E80C50A0E80C50B1F1F9
:100780002001BFF4F7AF090728BFA0E80C5048BF0D
:100790000CC05DF804EB890028BF40F8042B08BFAB
:1007A000704748BF20F8022B11F0804F18BF00F8A7
:1007B000012B704770477047704700000048704732
:1007C000F0570020704770477047704738B50446AF
:1007D0000A4600206946AFF30080002808BF38BDF4
:1007E00002460099204600F075F8012038BD01202E
:1007F00000F08AB8F8B5AFF30080054600200C463B
:10080000102000BF0646A819A0420DD932466946FD
:100810000020AFF30080070008BF00F075F80098D3
:10082000A04218BF0546C419FFF7C8FF0560074678
:10083000F01D20F007004619284600F00AF8B442DF
:1008400008BFF8BDA21B31463868BDE8F84000F08B
:1008500041B800210160C0E90110704710207047C5
:1008600070B50446051FFFF7A9FF0068002C14BFF0
:10087000446870BD002C18BFAC423CBF2046646881
:10088000F8D301680A18AA4218BF456003D12A6844
:1008900005461144016028684119A1421CBF6C60E3
:1008A00070BD6168696021680844286070BD10B53A
:1008B00000F00CF8006810BD10B5044600F006F812
:1008C000046010BD00487047E8570020004870479A
:1008D000E8570020034640688C46002818BF88422D
:1008E0003CBF03464068F8D318681844884207D0D4
:1008F0000CF1030020F00700001D411A521A0146B6
:10090000081D0A60FFF7ACBF10B500F039F8BDE86C
:10091000104000F02FB870477546FFF7D3FFAE4682
:1009200005006946534620F00700854618B020B5FB
:10093000FFF7BEFDBDE820404FF000064FF0000776
:100940004FF000084FF0000B21F00701AC46ACE877
:10095000C009ACE8C009ACE8C009ACE8C0098D46E4
:10096000704710B50446AFF300802046BDE8104044
:10097000FFF727BD002801D000F02AB8704700001B
:1009800010B5012805D0002103A000F027F80120B0
:1009900010BD09A1F8E7000053494752544D454D99
:1009A0003A204F7574206F662068656170206D6510
:1009B0006D6F7279000000003A2048656170206D0B
:1009C000656D6F727920636F727275707465640003
:1009D00001491820ABBEFEE72600020070B50546AF
:1009E0000C460A2000E06D1C00F011F835B12878A3
:1009F0000028F8D102E0641C00F009F814B1207856
:100A00000028F8D1BDE870400A20AFF3008008B597
:100A100069468DF800000320ABBE08BD9FED201A8B
:100A2000B5EE002A00EE012A9FED1E1ABDEEC20AA5
:100A3000B5EEC02AF1EE10FA10EE100AB8BF013878
:100A400000EE100A0020B8EEC00A32EE400A9FED18
:100A5000162A20EE010ABCEEC01A11EE101A30EE72
:100A6000021AB0EB512F18BF002102EE101A40F607
:100A7000A40000FE010AC0F60100B8EE422A00EB15
:100A8000810090ED011A30EE420AB7EE002A32EEF4
:100A9000402A20EE010A90ED001A02EE010A70478A
:100AA00083F9223E00000044000000C4B0B5038872
:100AB0000D88AB4256D145884C88A54252D1148846
:100AC000A3424FD15488A5424CD105FB03FC436897
:100AD00000254968B5EB9C0F506831D04FEA9C0265
:100AE000524200BF93ED000A91ED001A30EE010A68
:100AF00003F1100E01F1100400F1100580ED000A61
:100B0000013293ED010A91ED011A30EE010A80EDF8
:100B1000010A93ED020A91ED021A30EE010A80ED0E
:100B2000020A93ED030A91ED031A30EE010A7346AF
:100B3000214680ED030A2846D4D121462846734633
:100B40001CF003020CD05242B3EC010AB1EC011AC2
:100B500030EE010A051D013280ED000A2846F3D16E
:100B6000002000E0FD2040B2B0BD01804280436023
:100B7000704700002DE9F04F8BB0B0F800B0B0F82E
:100B800002E0F34540F051810B88FD229B4540F087
:100B90004D814F88BB4240F04981BBF1000F436853
:100BA00000F029816FF003004C6800EB8B08CDF852
:100BB0001CE0002700934FF07E5906945E462046C5
:100BC000BBEB060009D0B9002046FFF7CCFD0020A2
:100BD0000130874204F10404FAD104F1040AC4F894
:100BE0000090751E10D0A8EB87015046FFF7BBFDA3
:100BF000012054460130864204F10404FAD1002D4C
:100C000007F101072E46DBD1BBF1000F009BDDF899
:100C10001CE000F0F0800420CDF814B000EB8E0052
:100C200001901846ABF1010603EB8E044FEA8E02E9
:100C30001D1DCEF10001002308919FED800A77462B
:100C4000814600BF5B4580F0F58003FB0EF0B0EEFF
:100C5000403A09EB80010A9191ED001A0699B0EE35
:100C6000414A01EB800009902146304606E000BF72
:100C700091ED004A0138B0EE423A1144B5EEC04A57
:100C8000F1EE10FA0ADDB4EEC34AB0EE442AF1EEFA
:100C900010FAD8BFB0EE432A09E000BFB1EE442AF3
:100CA000B4EEC23AF1EE10FA01DBB0EE432A0028AE
:100CB000DED1B5EE402AF1EE10FA00F0BB80B0EEC6
:100CC000C13AB4EE423AF1EE10FA1CBFD84310EB31
:100CD0000B0004D0002000BF01308642FCD1B5EEED
:100CE000401AF1EE10FA00F0A580CDE90346AEEB14
:100CF000030C0A99BCF1010F4FF07E5008600AD036
:100D00000120294691ED002A82EE012A0130874216
:100D1000A1EC012AF6D1DDE9080100BF91ED002A1E
:100D200082EE012A0C1D013081ED002A2146F5D109
:100D3000ACF1010B05994FF00008DDF818A048460A
:100D4000CDF80890984505D100EB8C060AEB8E0A89
:100D500033E000BF90ED001A0A9CB0EE413ABBF1BF
:100D6000000F94ED002A01EE423A00F1040680EDF6
:100D7000003A15D00120002406EB040905EB040E0F
:100D800099ED002A9EED003A01EE432A0130874298
:100D900004F1040489ED002AEED12644DDF81CE0BC
:100DA000DDE908049AED002A94ED003A01EE432AA9
:100DB00004340130AAEC012AF4D106EB8300013996
:100DC00008F10108BED1DDF80890013F049E09F149
:100DD0000409039C03F101030198A6F101060444F0
:100DE000DDF814B005447FF42DAFB5EE401A009B3A
:100DF000F1EE10FA20D10EFB0BF1002000294FF08C
:100E000000020BD093ED000AB5EE400AF1EE10FAA5
:100E100004D101328A4203F10403F3D38A4208BFAA
:100E20006FF004000BB0BDE8F08FFD2250B20BB0A4
:100E3000BDE8F08FFB22F9E70022F7E70000000091
:100E40002DE9F04F88B0B0F802C00B889C4540F007
:100E50008880B0F800E013889E4540F08280B1F8A9
:100E60000290538899457CD14FEA9C04476804FB63
:100E700009F049680CF00305029101EB00100190A4
:100E800000202CF00303A0EB9C0107EB83060791E5
:100E90004FEA89035168C5F1000A00919FED330ABA
:100EA000CDE9039CCDE9050E0099CE4601EB800803
:100EB000DDE901BC002CB0EE401AE146384627D0EF
:100EC000624607993846B0EE401A00BF92ED002AFC
:100ED00090ED003A03EE021A1A4490ED014A92EDA9
:100EE000002A04EE021A1A4490ED025A92ED002AEA
:100EF00005EE021A1A4490ED036A92ED002A06EEFE
:100F0000021A013100F110001A44DFD1D9463046EF
:100F100055B1514690ED002A99ED003A02EE031AC0
:100F2000043001319944F5D108F1040088ED001A2C
:100F3000BEF1010E0CF1040C0BF1040B8046B9D18B
:100F4000DDF80C900598DDF810C04844DDF818E095
:100F500007EB8C07BEF1010E06EB8C06A2D1002038
:100F600000E0FD2040B208B0BDE8F08F00000000B6
:100F7000B0B503880D88AB4256D145884C88A54250
:100F800052D11488A3424FD15488A5424CD105FBBD
:100F900003FC436800254968B5EB9C0F506831D0CD
:100FA0004FEA9C02524200BF93ED000A91ED001AF5
:100FB00030EE410A03F1100E01F1100400F11005AA
:100FC00080ED000A013293ED010A91ED011A30EE35
:100FD000410A80ED010A93ED020A91ED021A30EE0A
:100FE000410A80ED020A93ED030A91ED031A30EEF7
:100FF000410A7346214680ED030A2846D4D1214692
:10100000284673461CF003020CD05242B3EC010A8E
:10101000B1EC011A30EE410A051D013280ED000AE3
:101020002846F3D1002000E0FD2040B2B0BD000012
:101030002DE9F04F83B002884B889A424DD1448805
:101040000B889C4249D10023D1F804804FEA940CCC
:10105000416804F0030ECDF80080A3EB94040294E1
:10106000140196000194CEF1000B4046BCF1000F34
:101070001ED04746029C00BF08683D463860374492
:10108000486807EB0609A85101F11000D1F808A043
:10109000013447F806A009EB0607C968374449F848
:1010A00006100146E8D101996C18014603E000BF23
:1010B000009800EB8304BEF1000F07D05D4600BF2F
:1010C00051F8040B013520603444F9D10133013A61
:1010D00008F10408CAD1002000E0FD2040B203B0AE
:1010E000BDE8F08F9FED1F1A20EE010A9FED1F2A29
:1010F000BDEEC01AB5EEC00AF1EE10FA11EE100AFC
:10110000B8BF013801EE100A0020B8EEC11A30EE67
:10111000410A9FED151A20EE010ABCEEC01A11EE2D
:10112000101A30EE021AB0EB512F18BF002102EE58
:10113000101A40F6A40000FE010AC0F60100B8EE45
:10114000422A00EB810090ED011A30EE420AB7EE20
:10115000002A32EE402A20EE010A90ED001A02EE3B
:10116000010A704783F9223E00000044000000C4D9
:1011700010B501221146024803F016FF10BD000011
:101180000008025810B500220121024803F00CFFAC
:1011900010BD00000008025810B5012208210248C5
:1011A00003F002FF10BD00000008025810B5002235
:1011B0000821024803F0F8FE10BD000000080258A4
:1011C00010B50446FFF7DEFF922000F0A3F90622D7
:1011D0009549122000F07EF9FFF7CAFF9248407847
:1011E000000200B2904909780843904908800846F7
:1011F000B0F9000000EE100AB8EEC00A8C48D0ED3D
:10120000000A20EE200AD4ED080A20EE200A84ED20
:10121000000A8548C078000200B2834989780843F3
:10122000824908800846B0F9000000EE100AB8EEC6
:10123000C00A7F48D0ED000A20EE200AD4ED080A4B
:1012400020EE200A84ED010A77484079000200B2BE
:10125000754909790843754908800846B0F90000C6
:1012600000EE100AB8EEC00A7148D0ED000A20EE78
:10127000200AD4ED080A20EE200A84ED020AFFF7C6
:1012800095FF08226849002000F024F9FFF784FF49
:10129000654800780F284FD166480078F0B362485F
:1012A000C078000200B26049897808435F4908802D
:1012B00094ED090A0846B0F9000000EE900AF8EE35
:1012C000E00A5D4890ED001A10EE810A84ED030AF1
:1012D00055484079000200B25349097908435349FF
:1012E000088094ED0A0A0846B0F9000000EE900A62
:1012F000F8EEE00A504890ED001A10EE810A84EDF5
:10130000040A4948C079000200B247498979084374
:101310004649088094ED0B0A084600E00DE0B0F95C
:10132000000000EE900AF8EEE00A434890ED001A43
:1013300010EE810A84ED050A44E03B48C0780002C3
:1013400000B2394989780843384908800846B0F91D
:10135000000000EE100AB8EEC00A3748D0ED000ACF
:1013600020EE200A84ED030A2F484079000200B2E3
:101370002D49097908432D4908800846B0F9000035
:1013800000EE100AB8EEC00A2B48D0ED000A20EE9D
:10139000200A84ED040A2448C079000200B22249E0
:1013A00089790843214908800846B0F9000000EE19
:1013B000100AB8EEC00A2048D0ED000A20EE200A3C
:1013C00084ED050AFFF7DEFEA22000F0A3F802225A
:1013D0001549222000F07EF8FFF7CAFE1248007877
:1013E000C0001149497840EA611010490880084658
:1013F000B0F90000B0F5806F05DB08460088A0F565
:10140000006000B208800948B0F9000000EE100A40
:10141000F8EEC00AB4EE001AB3EE070A00EE810A35
:1014200084ED070A10BD0000EE040020F604002041
:10143000B0040020C0040020B404002070B50446AD
:101440000D461C48046000201B4908700BF0B2FDDB
:10145000194909780843184908700BF061FE1649CC
:1014600009780843144908701DB1144800F01EF9AA
:101470001CE09FED130A114880ED090A9FED110A47
:1014800080ED0A0A9FED0F0A80ED0B0A9FED0E0A10
:1014900080ED0C0A90ED0C0ADFED0C0A80EE801A4C
:1014A00080ED081A9FED0A0A80ED060A02480078CE
:1014B00070BD0000F8040020BA040020B4570020DA
:1014C000AC38223BB016CE393F161B41C3F51C4148
:1014D0000000204270B506460C46154646F08000D6
:1014E00000F018F806E0552000F014F82070641C95
:1014F000681EC5B2002DF6D170BD70B504460D460C
:1015000044F0800000F006F8552000F003F8287041
:1015100070BD000001B582B04FF47A70012301AABA
:1015200002A900900348006805F08EFF9DF80400B2
:101530000EBD0000F804002070B505460C46284694
:10154000FFF7E8FF2046FFF7E5FF70BDD2ED020A86
:1015500092ED021AB6EE000A00EEC10AD2ED030ABD
:1015600092ED031A00EEC10AD0ED000A20EE200A27
:10157000D2ED010A92ED021A60EE810A92ED001A94
:10158000D2ED031A41EE610A90ED011A00EE810AD4
:10159000D2ED010A92ED031A60EE810A92ED001A73
:1015A000D2ED021A41EE210A90ED021A00EE810AF4
:1015B000F0EE000A20EE200A81ED000A92ED010A09
:1015C000D2ED020A20EE200AD2ED000A92ED031AB3
:1015D00000EE810AD0ED000A60EE200A92ED011AB9
:1015E000D2ED011AB6EE000A01EE610AD2ED031A3D
:1015F00092ED032AB0EE401A01EEC21AD0ED011AA4
:10160000B0EE600A01EE210AD2ED020A92ED031A51
:1016100060EE810A92ED001AD2ED011A41EE610AE4
:1016200090ED021A00EE810AF0EE000A20EE200A88
:1016300081ED010A92ED010AD2ED030A20EE200AA3
:10164000D2ED000A92ED021A00EEC10AD0ED000AB6
:1016500020EE200AD2ED020A92ED031A60EE810A12
:1016600092ED001AD2ED011A41EE210A90ED011A15
:1016700000EE810A92ED011AD2ED011AF6EE000A8F
:1016800041EE610A92ED021AD2ED021A41EE610AB0
:1016900090ED021A00EE810AF0EE000A20EE200A18
:1016A00081ED020A704700BFFEE7000070B52DED26
:1016B000048B88B0044600200690079000F09AFF43
:1016C000FE4880ED000A00BF00F094FFFB48D0ED1B
:1016D000000A30EE600AF2EE040AB4EEE00AF1EE1F
:1016E00010FA14DD9FEDF60A84ED090A9FEDF50A64
:1016F00084ED0A0A9FEDF30A84ED0B0A9FEDF20ACE
:1017000084ED0C0A9FEDF10A84ED060A5DE29FED7F
:10171000F00A00F02BFF9FEDEF0A84ED0C0A9FED1D
:10172000ED0A84ED090A9FEDEB0A84ED0A0A9FEDAC
:10173000E90A84ED0B0A002673E1FFF723FD9220EE
:10174000FFF7E8FE062206A91220FFF7C3FEFFF707
:101750000FFD9DF81900000200B29DF8181040EA34
:10176000010500EE105AB8EEC00ADB48D0ED000AC1
:1017700020EE200A84ED000A9DF81B00000200B252
:101780009DF81A1040EA010500EE105AB8EEC00AA2
:10179000D148D0ED000A20EE200A84ED010A9DF820
:1017A0001D00000200B29DF81C1040EA010500EE89
:1017B000105AB8EEC00AC848D0ED000A20EE200A40
:1017C00084ED020AD4ED000A60EEA00A94ED011A3D
:1017D000D4ED011A41EE210A94ED021AD4ED021A59
:1017E00041EE210AB0EE600A0BF0B0FBB0EE408A89
:1017F00094ED0C0A30EE080A84ED0C0AFFF7D6FCD3
:10180000082206A90020FFF765FEFFF7C5FC9DF83A
:1018100018000F2850D19DF81B00000200B29DF85F
:101820001A1040EA010500EE105AB8EEC00AAB48A3
:10183000D0ED000A20EE200A84ED030A94ED090A97
:10184000D4ED030A30EE200A84ED090A9DF81D004C
:10185000000200B29DF81C1040EA010500EE105A8B
:10186000B8EEC00A9D48D0ED000A20EE200A84EDB3
:10187000040A94ED0A0AD4ED040A30EE200A84ED3D
:101880000A0A9DF81F00000200B29DF81E1040EAEF
:10189000010500EE105AB8EEC00A9048D0ED000ADB
:1018A00020EE200A84ED050A94ED0B0AD4ED050A1A
:1018B00030EE200A84ED0B0A06BBF0EE488AB0EE4B
:1018C000489A002017E004F10C0101EB800191ED32
:1018D000000A03A901EB800181ED000A04F10C016B
:1018E00001EB800191ED000A694601EB800181ED79
:1018F000000A411CC8B20328E5DB49E0B4EEE88ADF
:10190000F1EE10FA01DDF0EE488AB4EEC98AF1EE8C
:1019100010FA01D2B0EE489A002037E004F10C0131
:1019200001EB800191ED000A03A901EB8001D1EDEB
:10193000000AB4EEE00AF1EE10FA0ADD04F10C013F
:1019400001EB800191ED000A03A901EB800181ED1B
:10195000000A04F10C0101EB800191ED000A6946D7
:1019600001EB8001D1ED000AB4EEE00AF1EE10FACD
:101970000AD204F10C0101EB800191ED000A6946E5
:1019800001EB800181ED000A411CC8B20328C5DBD0
:1019900038EEC90A524880ED000A002012E003A97F
:1019A00001EB800191ED000A694601EB8001D1ED68
:1019B000000A30EE600A4B4901EB800181ED000A1C
:1019C000411CC8B20328EADB454890ED000AF6EE58
:1019D000000AB4EEE00AF1EE10FA1BDC414890ED8B
:1019E000000ADFED410AB4EEE00AF1EE10FA11DC74
:1019F00090ED010ADFED3C0AB4EEE00AF1EE10FAD8
:101A000008DC90ED020ADFED380AB4EEE00AF1EEF0
:101A100010FA00DD0AE09FED350A00F0A7FD701C0A
:101A200086B2334800888642FFF687AE00BFD4ED09
:101A30000C0A2F48008800EE100AB8EE400A80EE2B
:101A4000801A84ED0C1A002015E004F1240101EB4A
:101A50008001D1ED000A2649098800EE101AB8EE7F
:101A6000400A80EE801A04F1240101EB800181ED2F
:101A7000001A411CC8B20328E7DBFFF783FBA22052
:101A8000FFF748FD022206A92220FFF723FDFFF7FA
:101A90006FFB9DF81800C0009DF8191040EA611511
:101AA000B5F5806F02DBA5F5006005B200EE105AB7
:101AB000F8EEC00AB4EE001A1CE00000E8040020B2
:101AC000AC38223BB016CE393F161B4100002042F5
:101AD0000AD7A33B00000000B0040020B40400209B
:101AE000BC040020A85700209A99193E6F12033AAF
:101AF000EC040020B3EE070A00EE810A84ED060A2A
:101B000038480088401C00B236490880364890EDBD
:101B1000000AF6EE000AB4EEE00AF1EE10FA3FF722
:101B2000D3ADD4ED0C0A9FED311A70EEC10AB0EEC0
:101B3000600A0BF036FEF6EE000AB4EEE00AF1EEB3
:101B400010FAECDC2A4890ED000A5FED190AB4EEB9
:101B5000E00AF1EE10FAE2DC90ED010A5FED1E0AF8
:101B6000B4EEE00AF1EE10FAD9DC90ED020A5FED76
:101B7000220AB4EEE00AF1EE10FAD0DCD4ED090A44
:101B8000B0EE600A0BF00DFEDFED1A0AB4EEE00ACB
:101B9000F1EE10FAC3DCD4ED0A0AB0EE600A0BF0E5
:101BA00000FEDFED140AB4EEE00AF1EE10FAB6DC46
:101BB000D4ED0B0AB0EE600A0BF0F3FDDFED0D0A79
:101BC000B4EEE00AF1EE10FAA9DC00BF94ED0C0AC5
:101BD000DFED090A80EE801A84ED081A08B0BDEC2A
:101BE000048B70BDC2040020BC040020CDCC1C417D
:101BF000A85700200AD7233CC3F51C4110B5024862
:101C000001F0A2F910BD0000540800200146374A37
:101C10000868904249D0354A18320868904244D04A
:101C2000324A3032086890423FD0304A4832086821
:101C300090423AD02D4A60320868904235D02B4A03
:101C400078320868904230D0284A90320868904232
:101C50002BD0264AA8320868904226D0244A086829
:101C6000904222D0224A1832086890421DD0204A61
:101C700030320868904218D01D4A483208689042B5
:101C800013D01B4A6032086890420ED0184A78324E
:101C90000868904209D0164A90320868904204D0F1
:101CA000134AA8320868904201D1012000E00020C8
:101CB000B0B10A78103A1823B2FBF3F000F0070233
:101CC0000C4B9A5CCA65032805D90A686FF30902B0
:101CD000121D8A6503E00A686FF309028A6503E052
:101CE000086820F0FF008865886D7047100002408A
:101CF000100402402407010810B502682B4C036849
:101D0000A34222D0294C14340368A3421DD0274C8F
:101D100028340368A34218D0244C3C340368A342FF
:101D200013D0224C50340368A3420ED01F4C6434AD
:101D30000368A34209D01D4C78340368A34204D041
:101D40001A4C8C340368A34201D1012300E0002324
:101D50008BB10378083B1424B3FBF4F1144B03EB71
:101D600081030366124B8033436601F01F04012395
:101D7000A340836618E00378103B1824B3FBF4F10A
:101D80000C4B9A4204D80B4BA83B9A4200D3083123
:101D9000094B03EB81030366074B8033436601F075
:101DA0001F040123A340836610BD0000085402589D
:101DB00000580258B8040240000802400179A9B353
:101DC000082940D8204B02689A4222D01E4B143377
:101DD00002689A421DD01C4B283302689A4218D0E0
:101DE000194B3C3302689A4213D0174B50330268A8
:101DF0009A420ED0144B643302689A4209D0124BB7
:101E0000783302689A4204D00F4B8C3302689A42AE
:101E100001D1012200E000224AB14A1E0B4B03EB24
:101E20008202C266094A4032026708E00BE04A1E9D
:101E3000074B03EB8202C266054A403202674A1E24
:101E400001239340436770470854025800590258D1
:101E500000090240014600208A69D2B98A6A32B17B
:101E6000012A0DD0022A03D0032A10D10EE000BFB0
:101E7000CA6A02F08072B2F1807F00D1012007E0CF
:101E8000CA6AB2F1C07F00D1012001E000E000BFCA
:101E900036E08A69B2F5005F1BD18A6A32B1012A45
:101EA00007D0022A03D0032A11D10AE000BF012083
:101EB0000EE0CA6A02F08072B2F1807F00D1012088
:101EC00006E0CA6AB2F1C07F00D1012000E000BF85
:101ED00016E08A6A32B1012A05D0022A04D0032A08
:101EE0000CD103E000BF00BF012008E0CA6A02F085
:101EF0008072B2F1807F00D1012000E000BF00BFFE
:101F00007047000030B5384D0468AC4249D0364DBA
:101F100018350468AC4244D0334D30350468AC42C7
:101F20003FD0314D48350468AC423AD02E4D603533
:101F30000468AC4235D02C4D78350468AC4230D0C2
:101F4000294D90350468AC422BD0274DA835046844
:101F5000AC4226D0254D0468AC4222D0234D183522
:101F60000468AC421DD0214D30350468AC4218D015
:101F70001E4D48350468AC4213D01C4D60350468D2
:101F8000AC420ED0194D78350468AC4209D0174DDB
:101F900090350468AC4204D0144DA8350468AC42B6
:101FA00001D1012400E0002474B1046863608468F6
:101FB000402C04D10468A2600468E16012E0046867
:101FC000A1600468E2600DE0046863608468402CEE
:101FD00004D10468A2600468E16003E00468A160C1
:101FE0000468E26030BD00001000024010040240AE
:101FF00000B970470170002280F834208263C26308
:10200000C262026380F84020428000238380C38044
:10201000038143818281C38103828374C374037506
:1020200043759FED0A0A80ED060A9FED080A80EDD0
:10203000070A9FED060A80ED080A28221354292278
:1020400013542A22135400BFD3E7000000000000FD
:1020500010B5044610209FED101ADFED100A9FED19
:10206000100A0CF0C3F860800C209FED0E1ADFED13
:102070000E0A9FED0B0A0CF0B9F8A0800021E18058
:1020800021810C209FED091ADFED090A9FED040A5A
:102090000CF0ACF8608110BDDA0F4940DA0F49C08E
:1020A0000000000000003442000034C2000058422A
:1020B000000058C27CB504460D4605A103C9CDE910
:1020C00000016A462946204600F0E3F87CBD000086
:1020D000FFFFFFFFFFFFFFFC10B52DED068B044651
:1020E000B0EE40AAF0EE609AB0EE418BB0EE429AAC
:1020F000B5EEC08AF1EE10FA03D29FED370AB0EECA
:10210000408A9FED360AB4EEC08AF1EE10FA03DD84
:102110009FED320AB0EE408AF5EEC08AF1EE10FA79
:1021200003D29FED2D0AF0EE408AB1EE040AF4EEE0
:10213000C08AF1EE10FA03DDB1EE040AF0EE408A37
:102140009FED270AB4EEC09AF1EE10FA03DD9FED81
:10215000240AB0EE409A9FED230AB4EEC09AF1EE45
:1021600010FA03D29FED1F0AB0EE409A10209FEDA7
:102170001E1ADFED1E0AB0EE4A0A0CF037F8608036
:102180000C209FED1B1ADFED1B0AB0EE690A0CF064
:102190002DF8A0800C209FED111ADFED0F0AB0EE94
:1021A000480A0CF023F8E0800C20B1EE041ADFEDB1
:1021B0000A0AB0EE680A0CF019F820810C209FED95
:1021C000081ADFED080AB0EE490A0CF00FF860813A
:1021D000BDEC068B10BD0000000000000000FA43BB
:1021E00000005842000058C2DA0F4940DA0F49C0D7
:1021F00000003442000034C2F0B502884788C7F3BB
:102200000B038788C7F30B04C788C7F30B0507893F
:10221000C7F30B06170A0F704A701F098F7003F07F
:102220000F074FEA142C4CEA0717CF700C712F09D7
:102230004F7105F00F074FEA162C4CEA07178F7104
:10224000CE71F0BD70B58CB006460C4601A9A01C3D
:10225000FFF7D2FF2078039000200490059008201B
:10226000069000200790089009900A900B9001AA10
:1022700003A9304601F0D6FE05462DB9E06B401C9F
:10228000E06302F097FE206384F8405028460CB0CB
:1022900070BD70B58AB005460C461646242101A8CB
:1022A000FEF761FA20780190002002900390082048
:1022B00004900020059006900790089009903246FF
:1022C00001A9284601F0AEFE0AB070BD70B5054602
:1022D0000C46287800F00F00E07128780011A071FA
:1022E000A079012800D100E000202077A079A07714
:1022F000A079012801DD012000E000206077A878A6
:10230000697840EA01202080E8780001297940EAD4
:10231000111060806879297901F00F0140EA0120ED
:10232000A080A8792072E879607220881021DFED02
:10233000180A9FED180A0CF00DFF84ED030A60885F
:102340000C21DFED150A9FED150A0CF003FF84ED5B
:10235000040AA0880C21DFED120A9FED120A0CF08E
:10236000F9FE84ED050A94ED030AB5EEC00AF1EE1C
:1023700010FA08D294ED030ADFED0B0A30EE200AC2
:1023800084ED060A03E094ED030A84ED060A70BDAD
:10239000DA0F4940DA0F49C000003442000034C26D
:1023A00000005842000058C2DA0FC94000B593B08F
:1023B000594B0FCBCDE91123CDE90F01564B10330B
:1023C0000FCBCDE90D23CDE90B010020079008903C
:1023D00009900A9051490870B2EE020AB5EEC00A9F
:1023E000F1EE10FA05DBF1EEC00A4D48C0ED000A2F
:1023F00005E0DFED4C0A4A48C0ED000A00BF48483E
:10240000D0ED000AB0EE081A70EEC10AB0EE600A14
:102410000BF0BDF9DFED440AB4EEE00AF1EE10FA7C
:1024200004DD02203D49087013B000BD0FAB02224D
:10243000114605A8FEF799FB0BAB0222114603A833
:10244000FEF793FB07AB0222114601A8FEF78DFBB6
:1024500001AA03A905A8FEF7F3FC9DED070A33487E
:1024600080ED000A9DED080A80ED010A9DED090A44
:1024700080ED020A9DED0A0A80ED030ADDED070AF0
:10248000B3EE031A70EEC10AB0EE600A0BF07FF9EA
:10249000DFED270AB4EEE00AF1EE10FA32DCDDEDF2
:1024A000080AB3EE061A70EEC10AB0EE600A0BF02D
:1024B0006EF9DFED1F0AB4EEE00AF1EE10FA21DC4E
:1024C000DDED090A9FED1B1A70EEC10AB0EE600A3D
:1024D0000BF05DF9DFED160AB4EEE00AF1EE10FA4A
:1024E00010DCDDED0A0A9FED141A70EEC10AB0EEA1
:1024F000600A0BF04CF9DFED0E0AB4EEE00AF1EEE3
:1025000010FA03DD0320054908708DE70120034917
:10251000087000BF88E7000074060108040000206E
:102520000000002000000000ACC52737FC0400209C
:1025300017B7D13800002C420000484208B50848BF
:1025400040680090074900980968884204D206480C
:102550000068401C0449086002490098086008BDF2
:10256000001000E008040020040400200C49486822
:10257000F0EE400A00BF0A494968091A01EE101A34
:10258000F8EE411A074991ED001AB8EE411A20EE13
:10259000811AF4EEC11AF1EE10FAECD37047000084
:1025A000001000E0F803002010B52DED028B82B082
:1025B00004460E484068019020680199081A00EE10
:1025C000100AF8EE400A0A4890ED000AB8EE400AF8
:1025D00080EE801AB0EE418A01982060FFF7AEFFCE
:1025E000B0EE480A02B0BDEC028B10BD001000E056
:1025F000F803002010B52DED028B00F059F80F48BC
:1026000090ED000AB8EE400A808800EE900AF8EEDD
:10261000600A9FED0B1A00EE810A0848C08800EEA0
:10262000900AF8EE600A9FED071A00EE810AB0EEFC
:10263000408AB0EE480ABDEC028B10BDF0030020CA
:102640006F12833ABD3786351249096841F08071AF
:10265000104A11600021104A51601146096841F08A
:10266000010111600D4941430D4A1160114609688D
:102670004FF47A72B1FBF2F10A4A11600849096815
:10268000064AB1FBF2F1084A11600021074A1160C5
:1026900070470000FCED00E0001000E040420F0039
:1026A000F8030020FC0300200004002004040020A4
:1026B00038B5294840680090FFF740FF2748006878
:1026C0004FF0FF31A0FB01310098181841F10001D3
:1026D000234A03C2234800232149026803C9FDF7A6
:1026E0002AFF214A03C220480CC81E480068002463
:1026F000A2FB001503FB005002FB04021848D0E9BE
:102700000030591A60EB0200184AC2E9001016485E
:10271000006817490860174800231449026803C974
:10272000FDF709FF12498880084680881149096829
:1027300041430E48D0E90030591A60F100000E4ABA
:10274000C2E900100D4800230B49026803C9FDF7D8
:10275000F2FE0749C88038BD001000E004040020E4
:1027600010040020F803002018040020200400209A
:10277000F0030020FC0300202804002000040020B7
:102780007047D2ED020A92ED021AB6EE000A00EE90
:10279000C10AD2ED030A92ED031A00EEC10AD0ED90
:1027A000000A20EE200AD2ED010A92ED021A60EE34
:1027B000810A92ED001AD2ED031A41EE210A90ED42
:1027C000011A00EE810AD2ED010A92ED031A60EEC1
:1027D000810A92ED001AD2ED021A41EE610A90EDE3
:1027E000021A00EE810AF0EE000A20EE200A81EDC6
:1027F000000A92ED010AD2ED020A20EE200AD2ED83
:10280000000A92ED031A00EEC10AD0ED000A60EE54
:10281000200A92ED011AD2ED011AB6EE000A01EE7D
:10282000610AD2ED031A92ED032AB0EE401A01EECE
:10283000C21AD0ED011AB0EE600A01EE210AD2ED03
:10284000020A92ED031A60EE810A92ED001AD2EDAF
:10285000011A41EE210A90ED021A00EE810AF0EE13
:10286000000A20EE200A81ED010A92ED010AD2ED64
:10287000030A20EE200AD2ED000A92ED021A00EEC1
:10288000810AD0ED000A20EE200AD2ED020A92ED74
:10289000031A60EE810A92ED001AD2ED011A41EEA0
:1028A000610A90ED011A00EE810A92ED011AD2ED53
:1028B000011AF6EE000A41EE610A92ED021AD2ED1B
:1028C000021A41EE610A90ED021A00EE810AF0EE62
:1028D000000A20EE200A81ED020A704772B600BF9E
:1028E000FEE700000748006840F002000549086064
:1028F00000BF04480838006800F400500028F8D0F1
:10290000704700000C48025810B5024801F04EFD17
:1029100010BD00000C05002010B5024801F046FD76
:1029200010BD0000AC05002010B5024801F03EFDCE
:1029300010BD00004C06002010B501464A6B086827
:10294000D0F884004FF6FC74A04340EA82000C6883
:10295000C4F884000868D0F8840020F47F04088F4D
:1029600044EA00400C68C4F88400886B024408689C
:10297000D0F888004FF6FC74A04340EA82000C684F
:10298000C4F888000868D0F8880020F4FE04888F16
:1029900044EA00400C68C4F88800C86B02EB4002AF
:1029A0000868D0F8A0004FF6FC74A04340EA82000B
:1029B0000C68C4F8A0000868D0F8A00020F4FE0459
:1029C0004020405A44EA00400C68C4F8A000D1E915
:1029D000104004FB00220868D0F8B0004FF6FC74E9
:1029E000A04340EA82000C68C4F8B0000868D0F840
:1029F000B00020F4FE04B1F8480044EA00400C683E
:102A0000C4F8B000D1E9124004FB00220868D0F8F5
:102A1000AC004FF6FC74A04340EA82000C68C4F896
:102A2000AC00D1E9144004FB00220868D0F8F000A3
:102A30004FF6FC74A04340EA82000C68C4F8F00032
:102A40000868D0F8F00020F47C14B1F8580044EA8B
:102A500000400C68C4F8F000886D02EB4002086882
:102A6000D0F8C0004FF6FC74A04340EA82000C6826
:102A7000C4F8C0000868D0F8C00020F47C14B1F895
:102A80005C0044EA00400C68C4F8C0000868D0F854
:102A9000C00020F07C5491F8600044EA00600C68AB
:102AA000C4F8C0002A4C486B04EB8000C866CC6EAA
:102AB000886B04EB80040C670C6FC86B04EBC004DC
:102AC0004C67D1E9100460434C6F04EB80048C67C1
:102AD000D1E9120460438C6F04EB8004CC67D1E928
:102AE00014046043CC6F04EB8004802044504458AD
:102AF000886D04EBC004842044508C6EC86D604324
:102B00008424645804EB8004882044508C6E086E42
:102B100060438824645804EB80049020445040585B
:102B20000C4CA04209D99831486840F02000486018
:102B3000032001F89809012010BDCB6E02E00020AF
:102B400018601B1D902040589842F8D80020F3E7E9
:102B500000AC0040FCD300402DE9F041054614468E
:102B60001E46D1F804C0BCF1000F0AD1D1F810C044
:102B7000D1F808804CEA080CB1F800804CEA884390
:102B80000BE0D1F810C04CF0804CD1F808804CEA32
:102B9000080CD1F800804CEA080391F82080D1F8A5
:102BA0001CC04CEA086CD1F818804CEA080CD1F82B
:102BB00014804CEA080CB1F80C804CEA0847D5F8B0
:102BC00068C00CFB06FCD5F8848008EB8C0213600F
:102BD000121D1760121D002019E000F1030C14F8FB
:102BE0000CC04FEA0C6800F1020C14F80CC048EA63
:102BF0000C4800F1010C14F80CC048EA0C2C14F835
:102C000000804CEA080CC2F800C0121D001DDFF85D
:102C10001480D1F80CC018F80CC08445DDD8BDE88C
:102C2000F08100002C0701082DE9F04704460F460B
:102C300090461E46DDF820904FF0000AA0688028DC
:102C400004D1400060654FF0010A75E100BF94F8BF
:102C50003400012802D10220BDE8F087012084F869
:102C6000340000BF94F8350001287DD1022084F89B
:102C7000350000206065B1492068884249D0AF49DD
:102C800018312068884244D0AC49303120688842ED
:102C90003FD0AA494831206888423AD0A7496031DC
:102CA0002068884235D0A54978312068884230D0E4
:102CB000A2499031206888422BD0A049A8312068D1
:102CC000884226D09E492068884222D09C491831EB
:102CD000206888421DD09A4930312068884218D037
:102CE000974948312068884213D09549603120685F
:102CF00088420ED0924978312068884209D09049A4
:102D000090312068884204D08D49A83120688842DB
:102D100001D1012000E0002090B12068006840F45B
:102D200080202168086020680661A06D00F1080518
:102D300094F85C0000F01F013F208840286011E0FB
:102D40002068006848F22001084321680860206874
:102D50000661A06D051D94F85C0000F01F010120C4
:102D600088402860754900E0E1E02068884270D022
:102D700072491831206888426BD070493031206820
:102D8000884266D06D4948312068884261D06B49DD
:102D90006031206888425CD0684978312068884278
:102DA00057D0664990312068884252D06349A83193
:102DB000206888424DD062492068884249D06049E5
:102DC00018312068884244D05D49303120688842FB
:102DD0003FD05B494831206888423AD05849603139
:102DE0002068884235D0564978312068884230D0F2
:102DF00053499031206888422BD05149A83120682E
:102E0000884226D04F492068884222D04D4914314B
:102E1000206888421DD04B4928312068884218D04C
:102E200048493C312068884213D0464950312068D7
:102E300088420ED0434964312068884209D0414914
:102E400078312068884204D03E498C31206888421D
:102E500001D1012000E0002068B14B4642463946CE
:102E60002046FFF74FF8D4E919104860E06E10B122
:102E7000D4E91C10486031492068884249D02F4964
:102E800018312068884244D02C493031206888426B
:102E90003FD02A494831206888423AD027496031DA
:102EA0002068884235D0254978312068884230D062
:102EB00022499031206888422BD02049A8312068CF
:102EC000884226D01E492068884222D01C491831E9
:102ED000206888421DD01A4930312068884218D0B5
:102EE000174948312068884213D01549603120685D
:102EF00088420ED0124978312068884209D01049A2
:102F000090312068884204D00D49A8312068884259
:102F100006D12068006840F00100216808600BE0DD
:102F20002068006840F001002168086004E04FF468
:102F3000006060654FF0010A50468DE610000240C7
:102F400010040240085402582DE9F84F04460020AE
:102F50000090FE4800684FF41651B0FBF1FAA66DE0
:102F6000D4F858803768D8F80090F949206888422A
:102F700049D0F74918312068884244D0F4493031AB
:102F8000206888423FD0F2494831206888423AD0D0
:102F9000EF4960312068884235D0ED4978312068AA
:102FA000884230D0EA499031206888422BD0E849E5
:102FB000A8312068884226D0E6492068884222D07D
:102FC000E4491831206888421DD0E2493031206838
:102FD000884218D0DF4948312068884213D0DD4943
:102FE0006031206888420ED0DA4978312068884202
:102FF00009D0D84990312068884204D0D549A831F9
:103000002068884201D1012000E0002000287DD006
:1030100094F85C0000F01F01082088403840002828
:1030200068D0CB492068884249D0C9491831206806
:10303000884244D0C6493031206888423FD0C449D4
:103040004831206888423AD0C149603120688842BE
:1030500035D0BF4978312068884230D0BC499031A2
:10306000206888422BD0BA49A8312068884226D0EF
:10307000B8492068884222D0B64918312068884271
:103080001DD0B44930312068884218D0B149483148
:103090002068884213D0AF496031206888420ED042
:1030A000AC4978312068884209D0AA49903120681B
:1030B000884204D0A749A8312068884204D12068FA
:1030C000006800F0040003E02068006800F00800D9
:1030D00080B12068006820F004002168086094F83E
:1030E0005C0000F01F0108208840B060606D40F077
:1030F0000100606594F85C0000F01F010120884029
:103100003840E8B392492068884200E0B7E24BD0EB
:103110008F4918312068884246D08D493031206867
:10312000884241D08A494831206888423CD0884949
:1031300060312068884237D08549783120688842DC
:1031400032D083499031206888422DD08049A831FF
:103150002068884228D07F492068884224D07D4951
:103160001831206888421FD07A493031206888425F
:103170001AD0784948312068884215D0754900E056
:1031800026E06031206888420ED07249783120688C
:10319000884209D06F4990312068884204D06D4937
:1031A000A8312068884204D12068406900F080007E
:1031B00002E020680068002050B194F85C0000F044
:1031C0001F0101208840B060606D40F00200606522
:1031D00094F85C0000F01F01042088403840E8B3F8
:1031E0005B49206888424BD0594918312068884291
:1031F00046D0574930312068884241D0544948313F
:10320000206888423CD0524960312068884237D0DB
:103210004F4978312068884232D04D49903120683A
:1032200088422DD04A49A8312068884228D049498F
:103230002068884224D047491831206888421FD02E
:1032400044493031206888421AD0424948312068C8
:10325000884215D03F496031206800E024E0884270
:103260000ED03C4978312068884209D039499031E4
:103270002068884204D03749A8312068884204D1A8
:103280002068006800F0020002E02068006800206A
:1032900050B194F85C0000F01F0104208840B06039
:1032A000606D40F00400606594F85C0000F01F0160
:1032B000102088403840E8B325492068884251D022
:1032C00023491831206888424CD021493031206888
:1032D000884247D01E4948312068884242D01C4964
:1032E0006031206888423DD0194978312068884291
:1032F00038D0174990312068884233D01449A8311A
:10330000206888422ED01349206888422AD011496B
:1033100018312068884225D00E4930312068884213
:1033200020D00C494831206888421BD009496031BF
:10333000206800E04DE0884214D0064978312068CA
:1033400088420FD003499031206805E02800002012
:103350001000024010040240884203D0FE49206859
:10336000884204D12068006800F0080003E020686B
:10337000006800F0040060B394F85C0000F01F01E6
:1033800010208840B0602068006800F4802080B180
:103390002068006800F4002028B9206CC8B12046DD
:1033A000216C884715E0A06C98B12046A16C884735
:1033B0000FE02068006800F4807028B92068006879
:1033C00020F0080021680860206C10B12046216CB4
:1033D000884794F85C0000F01F01202088403840A6
:1033E00000287DD0DD492068884249D0DB4918316A
:1033F0002068884244D0D9493031206888423FD083
:10340000D6494831206888423AD0D4496031206892
:10341000884235D0D14978312068884230D0CF49B0
:103420009031206888422BD0CC49A831206888424E
:1034300026D0C949A8392068884221D0C649903988
:10344000206888421CD0C44978392068884217D047
:10345000C14960392068884212D0BF494839206884
:1034600088420DD0BC4930392068884208D0BA491A
:1034700018392068884203D0B7492068884204D1AF
:103480002068006800F0100003E02068006800F089
:10349000020028B394F85C0000F01F01202088404F
:1034A000B06094F8350004282DD12068006820F021
:1034B0001600216808602068406920F080002168BB
:1034C0004861206C08B9A06C28B12068006820F021
:1034D00008002168086094F85C0000F01F0100E01B
:1034E0003FE03F208840B060012084F8350000BFF5
:1034F000002084F8340000BF206D10B12046216DFB
:103500008847BDE8F88F2068006800F4802080B10B
:103510002068006800F4002028B1606C08B32046E1
:10352000616C88471DE0E06BD8B12046E16B8847AD
:1035300017E02068006800F4807068B920680068AF
:1035400020F0100021680860012084F8350000BFD9
:10355000002084F8340000BFE06B10B12046E16B1E
:103560008847606D00287AD0606D00F00100E8B3F4
:10357000042084F835007949206888424BD0774987
:1035800018312068884246D074493031206888421A
:1035900041D072494831206888423CD06F4960313F
:1035A0002068884237D06D4978312068884232D00F
:1035B0006A499031206888422DD06849A831206836
:1035C000884228D06449A8392068884223D06249BB
:1035D0009039206888421ED05F4978392068884237
:1035E00019D05D4960392068884200E040E012D07F
:1035F00059494839206888420DD0574930392068E8
:10360000884208D0544918392068884203D052496A
:103610002068884206D12068006820F001002168F7
:10362000086005E02068006820F00100216808605B
:1036300000BF0098401C0090504500D905E020686C
:10364000006800F001000028F3D100BF2068006886
:1036500000F0010020B1032084F8350003E00DE004
:10366000012084F8350000BF002084F8340000BF3A
:10367000E06C002802D02046E16C8847D9E1384947
:103680002068884222D036491431206888421DD0F3
:10369000334928312068884218D031493C312068AC
:1036A000884213D02E495031206888420ED02C49D0
:1036B00064312068884209D02949783120688842DD
:1036C00004D027498C312068884201D1012000E0D4
:1036D00000200028D2D02068056894F85C0000F033
:1036E0001F010420884000EA0900D8B305F0040057
:1036F000C0B394F85C0000F01F0104208840C8F8B3
:10370000040005F4004080B105F4803030B1A06CB5
:103710000028B3D02046A16C88478AE1206C00289D
:10372000ACD02046216C884783E105F02000E8BB3F
:103730000A492068884253D00849183120688842D5
:103740004ED0064930312068884249D0034948317B
:103750002068884244D006E0B804024010000240CD
:10376000085402584FE0B44960312068884237D08D
:10377000B14978312068884232D0AF499031206811
:1037800088422DD0AC49A8312068884228D0AB4966
:103790002068884224D0A9491831206888421FD067
:1037A000A6493031206888421AD000E025E0A349BC
:1037B00048312068884213D0A0496031206888428F
:1037C0000ED09E4978312068884209D09B499031BB
:1037D0002068884204D09949A8312068884206D1DF
:1037E0002068006820F008002168086005E0206873
:1037F000006820F0040021680860206C10B32046A7
:10380000216C884715E194F85C0000F01F0102204C
:10381000884000EA0900E8B305F00200D0B394F84C
:103820005C0000F01F0102208840C8F8040005F485
:10383000004070B105F4803028B9606C10B12046AA
:10384000616C8847F5E0E06BF0B32046E16B884798
:10385000EFE005F02000C0BB7749206888424ED0D9
:10386000754918312068884249D073493031206841
:10387000884244D070494831206888423FD06E4920
:103880006031206888423AD06B497831206888429C
:1038900035D000E04EE068499031206888422ED053
:1038A0006549A8312068884229D064492068884247
:1038B00025D0624918312068884220D05F493031D4
:1038C000206888421BD001E06EE02DE05B49483162
:1038D0002068884213D059496031206888420ED050
:1038E000564978312068884209D05449903120687F
:1038F000884204D05149A8312068884206D1206806
:10390000006820F014002168086005E02068006865
:1039100020F00A0021680860012084F8350000BF0B
:10392000002084F8340000BFE06BE8B32046E16B70
:1039300088477EE094F85C0000F01F010820884072
:1039400000EA090080B305F0080068B33A4920682E
:1039500088424BD0384918312068884246D03649D1
:1039600030312068884241D033494831206888424C
:103970003CD0314960312068884237D02E497831B7
:103980002068884232D02C499031206888422DD05E
:103990002949A8312068884228D0284920688842CF
:1039A00024D02649183100E043E0206888421DD029
:1039B000224930312068884218D020494831206897
:1039C000884213D01D496031206888420ED01B49BF
:1039D00078312068884209D018499031206888429F
:1039E00004D01649A8312068884206D120680068B2
:1039F00020F01C002168086005E02068006820F0C5
:103A00000E002168086094F85C0000F01F0101209E
:103A10008840C8F804000120606584F8350000BFC4
:103A2000002084F8340000BFE06C10B12046E16C47
:103A3000884700BF65E50000100002401004024006
:103A40002DE9F041044601F0B5FA804614B9012091
:103A5000BDE8F081FE492068884249D0FC49183110
:103A60002068884244D0FA493031206888423FD0EB
:103A7000F7494831206888423AD0F54960312068DA
:103A8000884235D0F24978312068884230D0F049F8
:103A90009031206888422BD0ED49A83120688842B7
:103AA00026D0EC492068884222D0EA4918312068A3
:103AB00088421DD0E74930312068884218D0E54956
:103AC00048312068884213D0E2496031206888423A
:103AD0000ED0E04978312068884209D0DD49903124
:103AE0002068884204D0DB49A8312068884201D18F
:103AF000012000E00020002873D0606A00B100BF00
:103B0000022084F8350000BF002084F8340000BF94
:103B1000CF492068884249D0CD4918312068884271
:103B200044D0CB493031206888423FD0C849483121
:103B3000206888423AD0C64960312068884235D032
:103B4000C34978312068884230D0C149903120681B
:103B500088422BD0BE49A8312068884226D0BD4972
:103B60002068884222D0BB491831206888421DD085
:103B7000B84930312068884218D0B64948312068A9
:103B8000884213D0B3496031206888420ED0B149D1
:103B900078312068884209D0AE4990312068884247
:103BA00004D0AC49A8312068884206D1206800685A
:103BB00020F001002168086005E02068006820F01E
:103BC0000100216808600DE001F0F4F9A0EB0800A5
:103BD000052807D920206065032084F835000120DE
:103BE00036E769E02068006800F001000028EBD1AA
:103BF0002068056898480540D4E902010843216916
:103C0000084361690843A1690843E1690843216ADF
:103C100008430543606A042803D1D4E90B01084333
:103C200005436068292802D360682E2817D9606888
:103C30003F2802D36068422811D96068472802D320
:103C4000606848280BD960684F2802D36068522802
:103C500005D96068742804D36068772801D80120EA
:103C600000E0002008B145F4801520680560206858
:103C7000456925F00705606A0543606A04280DD18F
:103C8000A06A0543E06A48B12046FEF7E3F828B190
:103C900040206065012084F83500D9E62068456140
:103CA0002046FDF7B3FF064694F85C0000F01F01C4
:103CB0003F208840B0609EE068492068884222D05A
:103CC00066491431206888421DD064492831206833
:103CD000884218D061493C312068884213D05F493E
:103CE0005031206888420ED05C4964312068884297
:103CF00009D05A4978312068884204D057498C311C
:103D00002068884201D1012000E00020E0B353493F
:103D10002068884222D051491431206888421DD041
:103D20004E4928312068884218D04C493C312068DF
:103D3000884213D049495031206888420ED0474903
:103D400064312068884209D044497831206888422B
:103D500004D042498C312068884201D1012000E022
:103D6000002000B100BF022084F8350000BF002011
:103D700084F8340000BF2068056839480540A06811
:103D8000402802D1102106E02EE0A068802801D151
:103D9000C10100E00021E06841EAD001206941EA68
:103DA000D001606941EAD001A06941EAD001E0692F
:103DB00041EAD001206A41EA1010054320680560FD
:103DC00026492068401A1421B0FBF1F08000E0651C
:103DD0002046FDF71BFF074694F85C0000F01F012A
:103DE00001208840786006E040206065032084F868
:103DF000350001202CE61649206888427AD0144903
:103E000018312068884275D01149303120688842C5
:103E100070D00F494831206888426BD00C4960311E
:103E20002068884266D00A4978312068884261D08B
:103E300007499031206888425CD00549A831206844
:103E4000884257D003492068884253D0014909E08D
:103E500010000240100402403F8010FE0854025837
:103E60000F00FEFF18312068884243D03749206890
:103E700088423FD035491831206888423AD03349CA
:103E800030312068884235D0304948312068884236
:103E900030D02E496031206888422BD02B497831B0
:103EA0002068884226D02A492068884222D02849A2
:103EB0001431206888421DD0254928312068884265
:103EC00018D023493C312068884213D02049503112
:103ED000206888420ED01E4964312068884209D08B
:103EE0001B4978312068884204D019498C312068F8
:103EF000884201D1012000E0002000B32046FDF7F8
:103F0000FBFEA068802801D1002060602079216E2E
:103F10000860D4E919104860606860B160680828DA
:103F200009D82046FDF74AFF0020E16E0860D4E979
:103F30001C10486003E00020E066206760670020F6
:103F40006065012084F83500002081E540040240CE
:103F50000854025870B5044601F02CF80646254670
:103F6000681C10B104480078054400BF01F022F835
:103F7000801BA842FAD370BD2400002030B5034650
:103F800093F89840012C01D0022C3ED11868806D26
:103F9000084030B91868C06D40F001001D68E86540
:103FA0000EE01868806D0840884206D11868C06D20
:103FB00040F002001D68E86502E003201D68E86526
:103FC00001F4007030B11868D0F8E00010431D68AB
:103FD000C5F8E00001F4806030B11868D0F8E40062
:103FE00010431D68C5F8E40000BF1868406D0B4D14
:103FF0000D4028431D6868650948006840EA9170D3
:10400000074D286000BF002030BDD3F89C0040F071
:104010000200C3F89C000120F6E70000FFFFCF3F3D
:1040200014A800402DE9F04104460E46174670687A
:1040300000B900E000BF94F89800022832D120684F
:10404000D0F8C00000F07C5040B9D4F89C0040F09B
:104050002000C4F89C000120BDE8F0812068D0F861
:10406000C40000F4001038B1D4F89C0040F4007093
:10407000C4F89C000120EFE72068D0F8C400C0F32A
:1040800004452B463A4631462046FEF765FD0120A1
:10409000A8402168C1F8D0000120A840C4F89400CD
:1040A0000020D9E7D4F89C0040F00800C4F89C0038
:1040B0000120D1E77047F0B5024692F89860012ED2
:1040C00001D0022E43D1C868072800D100BF08687C
:1040D00018BBC868072800D000BFC86807280BD1E4
:1040E000088A4FF0605747EA0040CF6940EA07204E
:1040F0008F6940EA07030AE0087A80070F7B40EAED
:10410000C7600F8A40EA07404F6940EA0703D76E4D
:10411000486807EB8004236017E0C868072800D0D0
:1041200000BF0F7B086940EA4773C868072801D1C0
:104130008D6903E00F7A486940EA8775176F486810
:1041400007EBC0042360241D25600020F0BDD2F8D9
:104150009C0040F00200C2F89C000120F6E770B518
:104160000446049D94F8980001280AD1080140EA09
:10417000820040EA430028432668C6F880000020F9
:1041800070BDD4F89C0040F00400C4F89C000120ED
:10419000F6E77047704700002DE9F04304460D46EE
:1041A0009C46002394F89880B8F1020F7ED1402DF0
:1041B0003FD12068D0F8A00000F4FE0040B9D4F848
:1041C0009C0040F02000C4F89C000120BDE8F08372
:1041D0002068D0F8A40000F07F0038B9D4F89C0023
:1041E00040F48070C4F89C000120EFE72068D0F80C
:1041F000A400C0F305232068D0F8A400C0F3006039
:1042000080B12068D0F8A0004FF00109B9EBD07F51
:1042100008D12068D0F8A000C0F3064003F10109DE
:1042200000EA0903606C5843D4F8749009EB8001EC
:1042300053E0412D40D12068D0F8B00000F4FE00DA
:1042400038B9D4F89C0040F02000C4F89C0001204C
:10425000BCE72068D0F8B40000F07F0038B9D4F88B
:104260009C0040F48070C4F89C000120AEE72068F8
:10427000D0F8B400C0F305232068D0F8B400C0F330
:10428000006080B12068D0F8B0004FF00109B9EBB0
:10429000D07F08D12068D0F8B000C0F3064003F109
:1042A000010900EA0903E06C584300E072E0D4F829
:1042B000789009EB800110E0206DA84207D8D4F86F
:1042C0009C0040F02000C4F89C0001207EE7606D57
:1042D0006843D4F87C9009EB8001086800F08040C6
:1042E0005060506820B90868C0F38A40106003E04D
:1042F000086820F060401060086800F0005090608E
:10430000086800F000401061091D088880B2D06183
:104310000868C0F30340D060086800F48010506162
:10432000086800F4001090610868C0F3066010622D
:104330000868C00F5062091D0F46002603E0B85DF3
:104340000CF80600761CDFF85C90D06819F80000C5
:10435000B042F4D8402D03D12068C0F8A83017E04F
:10436000412D03D12068C0F8B83011E0202D06D2CD
:104370000120A840D4F80090C9F8980008E005F0A2
:104380001F09012000FA09F0D4F80090C9F89C0038
:1043900000201BE7D4F89C0040F00800C4F89C0003
:1043A000012013E72C070108704700002DE9F04FAA
:1043B0008DB00446EF4800688707EE48001D00688E
:1043C00007EA80772068006D00F470482068406D2F
:1043D00000EA08082068006D00F00F092068406DB1
:1043E00000EA09092068006D00F0F00A2068406DBD
:1043F00000EA0A0A2068006D00F0715B2068406DD9
:1044000000EA0B0B2068006D00F060700C902068D3
:10441000406D0C9908400C902068456D2068066D31
:10442000C5F3002070B1C6F3002058B100BF4FF4AF
:104430008070216808650020CE49086000BF2046D2
:10444000FFF7B2FFC5F38020C8B1C6F38020B0B13A
:104450002068D0F8DC000A902068D0F8E4000A99BF
:1044600008400A9000BF4FF4806021680865002072
:10447000C049086000BF20460A9900F092FC67B16D
:1044800000BFBD48384021680865B80FB9490860C9
:1044900000BF39462046FFF70DFEB8F1000F0ED0E1
:1044A00000BFB54808EA0000216808654FEA987027
:1044B000B049086000BF4146204600F074FCB9F1E5
:1044C000000F0ED000BFAC4809EA00002168086563
:1044D0004FEA9970A749086000BF4946204600F09E
:1044E000C7FBBAF1000F0ED000BFA3480AEA0000D4
:1044F000216808654FEA9A709E49086000BF5146DE
:10450000204600F02DFCC5F3C02070B1C6F3C020DA
:1045100058B100BF4FF4006021680865002095493C
:10452000086000BF204600F03FFCC5F34020C8B142
:10453000C6F34020B0B12068D0F8D8000B902068B6
:10454000D0F8E0000B9908400B9000BF4FF40070CA
:104550002168086500208749086000BF20460B9944
:1045600000F020FCC5F3C04070B1C6F3C04058B1A4
:1045700000BF4FF400202168086500207D490860D5
:1045800000BF204600F072FBC5F3004070B1C6F3D7
:10459000004058B100BF4FF480302168086500200A
:1045A0007449086000BF204600F0FAFBC5F3804064
:1045B00070B1C6F3804058B100BF4FF4802021682D
:1045C000086500206B49086000BF204600F0E7FB4B
:1045D000C5F3404088B1C6F3404070B100BF4FF40E
:1045E00000302168086500206249086000BFD4F8E7
:1045F0009C0040F08000C4F89C000C9870B100BF93
:104600005D490C980840216808650C98800F59494D
:10461000086000BF20460C99FFF7BCFDBBF1000FFE
:1046200010D000BF54480BEA0000216808654FEA2B
:104630009B705049086000BFD4F89C0040EA0B0012
:10464000C4F89C004D49206888427DD1606880682C
:1046500000F00300002877D06068006A00F00F00C7
:1046600009906068406A0999084009906068006A8A
:1046700000F0300008906068406A0899084008908F
:104680006068006A00F4C07007906068406A07992B
:10469000084007906068006A00F4FC40069060687B
:1046A000406A0699084006906068006A00F4F020AD
:1046B00005906068406A0599084005906068406A06
:1046C00002906068006A0190099830B109986168A9
:1046D00008622046099900F05FFB089830B10898FD
:1046E000616808622046089900F058FB0298C0F300
:1046F0008010A0B10198C0F3801080B16068C06BD9
:10470000000C04906068C06B00F03F0003904020F4
:10471000616808622046DDE9032100F03EFB07984E
:1047200030B10798616808622046079900F033FBB2
:10473000069840B1069861680862D4F89C00069912
:104740000843C4F89C0000E00AE0059840B10598D1
:1047500061680862D4F89C0005990843C4F89C007D
:10476000D4F89C0010B12046FFF713FD0DB0BDE852
:10477000F08F000010A80040FFFFCF3F00A00040D6
:1047800070B594B004464C22B34901A8FBF78FFFE3
:1047900014B9012014B070BDB0492068884203D11B
:1047A000206800F580706060A068B0F5407F00D19F
:1047B00000BF206C00B100BFA06C00B100BF206D35
:1047C00000B100BF206E00B100BFD4E9171008444B
:1047D00000B100BF94F8980028B9002084F899002F
:1047E000204600F03DF92068806920F01000216823
:1047F000886100F0DFFB05460EE000F0DBFB401BAC
:104800000A2809D99834606840F0010060600320EC
:1048100004F898090120BDE72068806900F00800CD
:104820000828EAD02068806940F00100216888618A
:1048300000F0C0FB05460EE000F0BCFB401B0A2860
:1048400009D99834606840F001006060032004F8E2
:10485000980901209EE72068806900F00100002887
:10486000EAD02068806940F0020021688861207CDD
:10487000012806D12068806920F040002168886105
:1048800005E02068806940F0400021688861607C14
:10489000012806D12068806940F480402168886141
:1048A00005E02068806920F4804021688861A07C50
:1048B000012806D12068806920F480502168886131
:1048C00005E02068806940F4805021688861206894
:1048D000806920F44070A1680843216888612068DD
:1048E000806920F0A400216888612068006920F0B8
:1048F000100021680861E068012806D120688069FD
:1049000040F004002168886120E0E068F0B1E068D0
:10491000022815D02068806940F0800021688861F5
:104920002068006940F0100021680861E0680328F1
:104930000CD12068806940F020002168886105E082
:104940002068806940F0200021688861207E401E38
:104950004106E069401E41EA0020216A491E0843E1
:10496000A18A491E40EA01402168C861A068B0F5EB
:10497000407F0FD1A06A401EE16A491E40EA012132
:10498000206B401E41EA0011A08C401E41EA00400D
:104990002168C860206E38B12068D0F8C000616E10
:1049A00008432168C1F8C000D4E91710084460B179
:1049B0002068D0F8C80020F0070001AAA16E52F8C4
:1049C000211008432168C1F8C800206C60B120683C
:1049D000D0F8BC0020F0070001AA616C52F8211049
:1049E00008432168C1F8BC00A06C68B12068D0F809
:1049F000BC0020F0700101AAE06C52F8200041EAEE
:104A000000102168C1F8BC00206D68B12068D0F8A2
:104A1000BC0020F4E06101AA606D52F8200041EA78
:104A200000202168C1F8BC000C492068884205D1EB
:104A30006068806820F0030061688860002044F8A6
:104A4000940FA06001202071943C2046FDF774FF74
:104A5000064630469EE600003C07010800A00040E4
:104A600010B5B6B00446142130A8FBF77CFEB8217F
:104A700002A8FBF778FE76492068884249D14FF4B6
:104A800000410020CDE902101D9002A800F060FE58
:104A900008B1FDF723FF6F480068401C6D490860AE
:104AA0000846006801280DD100BF6B48006840F43B
:104AB0008070694908600846006800F480700190C1
:104AC00000BF00BF00BF64480C38006840F0080019
:104AD00061490C3908600846006800F00800019040
:104AE00000BF00BF032030900220319000203290A0
:104AF000032033900920349030A9584800F056F92B
:104B000000220521132000F05FFB132000F048FB7A
:104B10009BE053492068884249D14FF4004100206E
:104B2000CDE902101D9002A800F012FE08B1FDF7B9
:104B3000D5FE48480068401C4649086008460068A1
:104B400001280DD100BF4448006840F480704249FC
:104B500008600846006800F48070019000BF00BF44
:104B600000BF3D480C38006840F002003A490C395B
:104B700008600846006800F00200019000BF00BF16
:104B8000602030900220319000203290032033903A
:104B90000920349030A9334800F008F9002205219B
:104BA000142000F011FB142000F0FAFA4DE02E4919
:104BB0002068884249D14FF400410020CDE902101D
:104BC0001D9002A800F0C4FD08B1FDF787FE214842
:104BD0000068401C1F4908600846006801280DD184
:104BE00000BF1D48006840F480701B4908600846FB
:104BF000006800F48070019000BF00BF00BF16483D
:104C00000C38006840F0080013490C390860084669
:104C1000006800F00800019000BF00BF4FF4405052
:104C200030900220319000203290032033900520F4
:104C3000349030A9094800F0B9F8002205219F20DE
:104C400000F0C2FA9F2000F0ABFA36B010BD0000B1
:104C500000A0004018000020EC440258000C02584C
:104C600000A400400004025800D400407047000037
:104C700030B58DB005460C4604F0010000286AD01E
:104C800060E00398112806D0122817D0132829D0E5
:104C9000142855D13DE0314901A8FDF717FB01204B
:104CA0002E490C3981F8340000F084F92B490C3975
:104CB000C8620846806B401C886342E02749443143
:104CC00001A8FDF703FB012124480C3880F8781077
:104CD00000F070F921490C3908670846C06F401C84
:104CE000C8672EE01D49883101A8FDF7EFFA0121C0
:104CF0001A480C3880F8BC1000F05CF917490C39E0
:104D0000C1F8B4000846D0F8C000401CC1F8C0008B
:104D100017E01249CC3101A8FDF7D8FA01210F485C
:104D20000C3880F8001100F045F90C490C39C1F835
:104D3000F8000846D0F80401401CC1F8040100E066
:104D400000BF00BF01AB03AA40212846FFF724FAA9
:104D5000002896D000BF0DB030BD0000240900200F
:104D60007047014691F8980001280CD1022081F883
:104D700098000868806920F001000A6890610020AE
:104D8000C1F89C007047D1F89C0040F00400C1F8C5
:104D90009C000120F6E770477047704770477047E6
:104DA000704770477047704770470000F8B502467B
:104DB0000023714DDAE001279F400E6806EA0704E0
:104DC000002C7AD00E7906F00306012E04D00E795D
:104DD00006F00306022E13D190685F000326BE4042
:104DE000B0435F00CE68BE403043906050680126FB
:104DF0009E40B0430E79C6F300169E40304350608B
:104E00000E7906F00306032E07D10E7906F003068D
:104E1000032E0CD18E68012E09D0D0685F000326C6
:104E2000BE40B0435F008E68BE403043D0600E7914
:104E300006F00306022E13D1DF0802F1200656F811
:104E400027005E07F70E0F26BE40B0435F07FF0E38
:104E50000E69BE403043DF0802F1200646F8270005
:104E600010685F000326BE40B0430E7906F00306CB
:104E70005F00BE40304310604E6806F44036002E9E
:104E800073D000BF3D4E366846F002063B4F3E6091
:104E90003E46366806F00206009600BF00BF384E58
:104EA0009F0856F827009E07370F0F26BE40B043D5
:104EB000344EB24202D1002629E056E0324EB242D0
:104EC00001D1012623E0314EB24201D102261EE07B
:104ED0002F4EB24201D1032619E02E4EB24201D12B
:104EE000042614E02C4EB24201D105260FE02B4ED1
:104EF000B24201D106260AE0294EB24201D107266C
:104F000005E0284EB24201D1092600E00A269F079B
:104F10003F0FBE4030431A4E9F0846F827004FF01F
:104F2000B0463068A0434E6806F4801606B12043B0
:104F30004FF0B04630607068A0434E6806F400162B
:104F400006B120434FF0B04670606868A0434E68D9
:104F500006F4003606B1204368602868A0434E6816
:104F600006F4803606B1204328605B1C0E68DE40E4
:104F7000002E7FF420AFF8BD80000058F4440258A2
:104F800008040058000002580004025800080258A3
:104F9000000C025800100258001402580018025861
:104FA000001C0258002402580AB1816101E00B0480
:104FB0008361704701480068704700001C000020B2
:104FC00003480068034909780844014908607047AC
:104FD0001C0000202400002010B5032000F032F94E
:104FE00001F02AFC10490968C1F303210F4A515C02
:104FF00001F01F0120FA01F40B48006800F00F00D7
:105000001146085C00F01F0024FA00F0084908600F
:10501000084804600F2000F00FF808B1012010BD0F
:1050200000F0A6F80020FAE718440258B00701087B
:105030002C0000202800002070B58AB00446102CF7
:105040000AD200222146192000F0BEF8192000F0F3
:10505000A7F81948046002E001200AB070BD00BF43
:105060001648006840F001001449086008460068CE
:1050700000F00100009000BF00BF01A902A801F0EC
:105080005BFB01F0C7FB45000D48B5FBF0F0461E89
:105090000C480D49086040F2E7310B48C16046609A
:1050A00000210161816002F079FC18B9064802F024
:1050B000ADFCD2E70120D0E720000020F0440258E8
:1050C00040420F0000000140CC0800204178154A02
:1050D000116014490831096821F00101114A0832B0
:1050E0001160121F41681160017B0907C27A41EA11
:1050F0000261827A41EAC241427B41EA8241827B7B
:1051000041EA4241C27B41EA0241427A41EA02213C
:10511000027A41EA420102781143024A08321160E0
:105120007047000098ED00E0BFF35F8F054800680E
:1051300020F4803003490860002002497031086083
:105140007047000024ED00E040F00101074A1160C3
:1051500006497039096841F48031044A703A116097
:10516000BFF34F8FBFF36F8F7047000094ED00E0E7
:1051700008B500BF0948006840F002000749086010
:105180000846006800F00200009000BF00BF002247
:105190000F21901E00F018F808BD0000F4440258DA
:1051A0000146084600280DDB00BF00BF00F01F03CA
:1051B00001229A4043099B0003F1E023C3F8002138
:1051C00000BF00BF00BF70472DE9F05F80460D466D
:1051D000164607F0BFFB074639462A46334601F01C
:1051E0000700C0F1070ABAF1040F02D94FF0040A10
:1051F00001E0C0F1070AD14600F1040ABAF1070F35
:1052000002D24FF0000A01E0A0F1030AD4464FF0A9
:10521000010A0AFA09FAAAF1010A0AEA020A0AFAD2
:105220000CFA4FF0010B0BFA0CFBABF1010B0BEA84
:10523000030B4AEA0B042146404607F093FBBDE806
:10524000F09F000000BF00F00702064B19684FF600
:10525000FF031940044B0B4343EA0221014B196041
:1052600000BF70470CED00E00000FA0570B5044681
:1052700015480068C0F3800048B91348006800F082
:105280000700A04201D0012070BD0020FCE70E48BD
:10529000006820F0070020430B490860FFF78AFEF2
:1052A000054607E0FFF786FE401BB0F57A7F01D97F
:1052B0000120E9E7044808380068C0F340300028BE
:1052C000F0D00020E0E700000C48025810B501F0D3
:1052D00069FA05490968C1F30211044A515C01F0F9
:1052E0001F01C84010BD000020440258B00701084B
:1052F00070B50146844D2D6805F00303824D2D687D
:10530000C5F30530804D2D1D2D68C5F300147E4D6D
:1053100014352D68C5F3CC0515FB04F501EE105AC4
:10532000B8EE411AF0EE410A00286FD023B1012BEC
:105330004ED0022B6BD16BE0734D283D2D68C5F329
:1053400040153DB3704D283D2D68C5F3C1066F4D26
:1053500025FA06F201EE102AF8EE411A01EE100AC3
:10536000B8EE411A81EE812A9FED691AC0EE811ACA
:10537000654D10352D68C5F3080501EE105AB8EEDD
:10538000411A31EE811AF7EE001A31EE211A22EE9F
:10539000010A1CE001EE100AB8EE411ADFED5D1AB9
:1053A00081EE812A9FED5A1AC0EE811A564D1035B2
:1053B0002D68C5F3080501EE105AB8EE411A31EE1A
:1053C000811AF7EE001A31EE211A22EE010A5BE093
:1053D00001EE100AB8EE411ADFED4F1A81EE812A74
:1053E0009FED4B1AC0EE811A474D10352D68C5F35D
:1053F000080501EE105AB8EE411A31EE811AF7EEA7
:10540000001A31EE211A22EE010A3DE077E01DE09C
:1054100001EE100AB8EE411A9FED402AC2EE011AC1
:105420009FED3B1A80EE812A374D10352D68C5F36C
:10543000080501EE105AB8EE411A32EE011AB7EE25
:10544000002A31EE021A21EE810A1DE001EE100A57
:10545000B8EE411ADFED301A81EE812A9FED2C1A49
:10546000C0EE811A284D10352D68C5F3080501EEF0
:10547000105AB8EE411A31EE811AF7EE001A31EEE9
:10548000211A22EE010A00BF00BF1F4D10352D6802
:10549000C5F3462501EE105AB8EE411AF7EE001A90
:1054A00031EE211AC0EE011ABCEEE11A81ED001AAC
:1054B000154D10352D68C5F3064501EE105AB8EEAE
:1054C000411AF7EE001A31EE211AC0EE011ABCEEB5
:1054D000E11A81ED011A0C4D10352D68C5F30665F2
:1054E00001EE105AB8EE411AF7EE001A31EE211A09
:1054F000C0EE011ABCEEE11A81ED021A03E00025AC
:105500000D604D608D6070BD284402580090D0033E
:10551000000000460024744C0024744A001BB74B62
:1055200070B50146844D2D6805F00303824D2D684A
:10553000C5F30550804D2D1D2D68C5F300247E4D0B
:105540001C352D68C5F3CC0515FB04F501EE105A8A
:10555000B8EE411AF0EE410A00286FD023B1012BBA
:105560004ED0022B6BD16BE0734D283D2D68C5F3F7
:1055700040153DB3704D283D2D68C5F3C1066F4DF4
:1055800025FA06F201EE102AF8EE411A01EE100A91
:10559000B8EE411A81EE812A9FED691AC0EE811A98
:1055A000654D18352D68C5F3080501EE105AB8EEA3
:1055B000411A31EE811AF7EE001A31EE211A22EE6D
:1055C000010A1CE001EE100AB8EE411ADFED5D1A87
:1055D00081EE812A9FED5A1AC0EE811A564D183578
:1055E0002D68C5F3080501EE105AB8EE411A31EEE8
:1055F000811AF7EE001A31EE211A22EE010A5BE061
:1056000001EE100AB8EE411ADFED4F1A81EE812A41
:105610009FED4B1AC0EE811A474D18352D68C5F322
:10562000080501EE105AB8EE411A31EE811AF7EE74
:10563000001A31EE211A22EE010A3DE077E01DE06A
:1056400001EE100AB8EE411A9FED402AC2EE011A8F
:105650009FED3B1A80EE812A374D18352D68C5F332
:10566000080501EE105AB8EE411A32EE011AB7EEF3
:10567000002A31EE021A21EE810A1DE001EE100A25
:10568000B8EE411ADFED301A81EE812A9FED2C1A17
:10569000C0EE811A284D18352D68C5F3080501EEB6
:1056A000105AB8EE411A31EE811AF7EE001A31EEB7
:1056B000211A22EE010A00BF00BF1F4D18352D68C8
:1056C000C5F3462501EE105AB8EE411AF7EE001A5E
:1056D00031EE211AC0EE011ABCEEE11A81ED001A7A
:1056E000154D18352D68C5F3064501EE105AB8EE74
:1056F000411AF7EE001A31EE211AC0EE011ABCEE83
:10570000E11A81ED011A0C4D18352D68C5F30665B7
:1057100001EE105AB8EE411AF7EE001A31EE211AD6
:10572000C0EE011ABCEEE11A81ED021A03E0002579
:105730000D604D608D6070BD284402580090D0030C
:10574000000000460024744C0024744A001BB74B30
:105750002DE9F04104460025A8464FF00062D4E947
:10576000001011400020134659404040014331D100
:10577000606E48B1B0F5801F0DD0B0F5001F11D09C
:10578000B0F5401F16D114E0FE48006840F4003028
:10579000FC49086010E0022104F1080005F05AFEFF
:1057A000054609E0022104F1280005F005FF054641
:1057B00002E001E0012500BF00BF55B9F1482430E7
:1057C000006820F44010616E0843EE4924310860FF
:1057D00000E0A8464FF48072D4E900101140002088
:1057E00013465940404001432ED1A06D05281BD2DD
:1057F000DFE800F0030A11181900E248006840F4DD
:105800000030E049086011E0002104F1080005F0D3
:1058100021FE05460AE0002104F1280005F0CCFE37
:10582000054603E002E001E0012500BF00BF55B9D5
:10583000D4482430006820F00700A16D0843D14906
:105840002431086000E0A8464FF48062D4E90010DB
:105850001140002013465940404001433DD1D4F847
:10586000A400B0F5C00F24D007DC68B1B0F5001F6C
:1058700011D0B0F5800F1FD114E0B0F5000F19D092
:10588000B0F5200F18D116E0BE48006840F4003093
:10589000BC49086012E0002104F1080005F0DAFDBF
:1058A00005460BE0002104F1280005F085FE0546C1
:1058B00004E003E002E001E0012500BF00BF5DB9A4
:1058C000B0482C30006820F46000D4F8A4100843DD
:1058D000AC492C31086000E0A8464FF40062D4E9DE
:1058E00000011040002113465840494008433DD173
:1058F000D4F8A800B0F1407F24D007DC68B1B0F143
:10590000807F11D0B0F1007F1FD114E0B0F1806F23
:1059100019D0B0F1A06F18D116E09A48006840F491
:1059200000309849086012E0002104F1080005F0F9
:1059300091FD05460BE0002104F1280005F03CFE36
:10594000054604E003E002E001E0012500BF00BFDE
:105950005DB98C482C30006820F0E060D4F8A810C5
:10596000084388492C31086000E0A8464FF00073D6
:10597000D4E900101940002059404040014328D18B
:10598000E06CA8B1102804D0202809D0302810D10C
:105990000DE07C48006840F400307A4908600AE075
:1059A000022104F1080005F055FD054603E002E080
:1059B00001E0012500BF00BF55B9724820300068E2
:1059C00020F03000E16C08436E492031086000E0AF
:1059D000A8464FF48053D4E90010194000205940E4
:1059E0004040014337D1E06DB0F5005F1AD004DCD0
:1059F00050B1B0F5805F1ED10DE0B0F5405F18D01A
:105A0000B0F5804F17D115E05E48006840F40030D3
:105A10005C49086011E0002104F1080005F01AFD5E
:105A200005460AE0002104F1280005F0C5FD054601
:105A300003E002E001E0012500BF00BF55B9514875
:105A40002430006820F4E040E16D08434D492431E2
:105A5000086000E0A8464FF40053D4E90010194054
:105A6000002059404040014335D1206EB0F5403F01
:105A70001ED007DC68B1B0F5803F0BD0B0F5003F19
:105A800019D10EE0B0F5802F13D0B0F5A02F12D1B0
:105A900010E012E0012104F1080005F0DBFC0546EE
:105AA0000BE0012104F1280005F086FD054604E025
:105AB00003E002E001E0012500BF00BF55B9314815
:105AC0002430006820F4E020216E08432D49243161
:105AD000086000E0A8464FF48042D4E9000110407D
